{
  "_format": "hh-sol-artifact-1",
  "contractName": "LZEndpointMock",
  "sourceName": "contracts/mocks/LZEndpointMock.sol",
  "abi": [
    {
      "inputs": [
        {
          "internalType": "uint16",
          "name": "_chainId",
          "type": "uint16"
        }
      ],
      "stateMutability": "nonpayable",
      "type": "constructor"
    },
    {
      "inputs": [
        {
          "internalType": "address",
          "name": "_a",
          "type": "address"
        }
      ],
      "name": "addrToPackedBytes",
      "outputs": [
        {
          "internalType": "bytes",
          "name": "",
          "type": "bytes"
        }
      ],
      "stateMutability": "pure",
      "type": "function"
    },
    {
      "inputs": [
        {
          "internalType": "uint16",
          "name": "",
          "type": "uint16"
        },
        {
          "internalType": "address",
          "name": "",
          "type": "address"
        },
        {
          "internalType": "bytes",
          "name": "",
          "type": "bytes"
        },
        {
          "internalType": "bool",
          "name": "",
          "type": "bool"
        },
        {
          "internalType": "bytes",
          "name": "",
          "type": "bytes"
        }
      ],
      "name": "estimateFees",
      "outputs": [
        {
          "internalType": "uint256",
          "name": "_nativeFee",
          "type": "uint256"
        },
        {
          "internalType": "uint256",
          "name": "_zroFee",
          "type": "uint256"
        }
      ],
      "stateMutability": "view",
      "type": "function"
    },
    {
      "inputs": [
        {
          "internalType": "uint16",
          "name": "_srcChainId",
          "type": "uint16"
        },
        {
          "internalType": "bytes",
          "name": "_srcAddress",
          "type": "bytes"
        }
      ],
      "name": "forceResumeReceive",
      "outputs": [],
      "stateMutability": "nonpayable",
      "type": "function"
    },
    {
      "inputs": [],
      "name": "getChainId",
      "outputs": [
        {
          "internalType": "uint16",
          "name": "",
          "type": "uint16"
        }
      ],
      "stateMutability": "view",
      "type": "function"
    },
    {
      "inputs": [
        {
          "internalType": "uint16",
          "name": "",
          "type": "uint16"
        },
        {
          "internalType": "uint16",
          "name": "",
          "type": "uint16"
        },
        {
          "internalType": "address",
          "name": "",
          "type": "address"
        },
        {
          "internalType": "uint256",
          "name": "",
          "type": "uint256"
        }
      ],
      "name": "getConfig",
      "outputs": [
        {
          "internalType": "bytes",
          "name": "",
          "type": "bytes"
        }
      ],
      "stateMutability": "pure",
      "type": "function"
    },
    {
      "inputs": [
        {
          "internalType": "uint16",
          "name": "_chainID",
          "type": "uint16"
        },
        {
          "internalType": "bytes",
          "name": "_srcAddress",
          "type": "bytes"
        }
      ],
      "name": "getInboundNonce",
      "outputs": [
        {
          "internalType": "uint64",
          "name": "",
          "type": "uint64"
        }
      ],
      "stateMutability": "view",
      "type": "function"
    },
    {
      "inputs": [
        {
          "internalType": "uint16",
          "name": "_chainID",
          "type": "uint16"
        },
        {
          "internalType": "address",
          "name": "_srcAddress",
          "type": "address"
        }
      ],
      "name": "getOutboundNonce",
      "outputs": [
        {
          "internalType": "uint64",
          "name": "",
          "type": "uint64"
        }
      ],
      "stateMutability": "view",
      "type": "function"
    },
    {
      "inputs": [
        {
          "internalType": "address",
          "name": "",
          "type": "address"
        }
      ],
      "name": "getReceiveLibraryAddress",
      "outputs": [
        {
          "internalType": "address",
          "name": "",
          "type": "address"
        }
      ],
      "stateMutability": "view",
      "type": "function"
    },
    {
      "inputs": [
        {
          "internalType": "address",
          "name": "",
          "type": "address"
        }
      ],
      "name": "getReceiveVersion",
      "outputs": [
        {
          "internalType": "uint16",
          "name": "",
          "type": "uint16"
        }
      ],
      "stateMutability": "pure",
      "type": "function"
    },
    {
      "inputs": [
        {
          "internalType": "address",
          "name": "",
          "type": "address"
        }
      ],
      "name": "getSendLibraryAddress",
      "outputs": [
        {
          "internalType": "address",
          "name": "",
          "type": "address"
        }
      ],
      "stateMutability": "view",
      "type": "function"
    },
    {
      "inputs": [
        {
          "internalType": "address",
          "name": "",
          "type": "address"
        }
      ],
      "name": "getSendVersion",
      "outputs": [
        {
          "internalType": "uint16",
          "name": "",
          "type": "uint16"
        }
      ],
      "stateMutability": "pure",
      "type": "function"
    },
    {
      "inputs": [
        {
          "internalType": "uint16",
          "name": "",
          "type": "uint16"
        },
        {
          "internalType": "bytes",
          "name": "",
          "type": "bytes"
        }
      ],
      "name": "hasStoredPayload",
      "outputs": [
        {
          "internalType": "bool",
          "name": "",
          "type": "bool"
        }
      ],
      "stateMutability": "pure",
      "type": "function"
    },
    {
      "inputs": [
        {
          "internalType": "uint16",
          "name": "",
          "type": "uint16"
        },
        {
          "internalType": "bytes",
          "name": "",
          "type": "bytes"
        }
      ],
      "name": "inboundNonce",
      "outputs": [
        {
          "internalType": "uint64",
          "name": "",
          "type": "uint64"
        }
      ],
      "stateMutability": "view",
      "type": "function"
    },
    {
      "inputs": [],
      "name": "isReceivingPayload",
      "outputs": [
        {
          "internalType": "bool",
          "name": "",
          "type": "bool"
        }
      ],
      "stateMutability": "pure",
      "type": "function"
    },
    {
      "inputs": [],
      "name": "isSendingPayload",
      "outputs": [
        {
          "internalType": "bool",
          "name": "",
          "type": "bool"
        }
      ],
      "stateMutability": "pure",
      "type": "function"
    },
    {
      "inputs": [
        {
          "internalType": "address",
          "name": "",
          "type": "address"
        }
      ],
      "name": "lzEndpointLookup",
      "outputs": [
        {
          "internalType": "address",
          "name": "",
          "type": "address"
        }
      ],
      "stateMutability": "view",
      "type": "function"
    },
    {
      "inputs": [],
      "name": "mockBlockConfirmations",
      "outputs": [
        {
          "internalType": "uint256",
          "name": "",
          "type": "uint256"
        }
      ],
      "stateMutability": "view",
      "type": "function"
    },
    {
      "inputs": [],
      "name": "mockChainId",
      "outputs": [
        {
          "internalType": "uint16",
          "name": "",
          "type": "uint16"
        }
      ],
      "stateMutability": "view",
      "type": "function"
    },
    {
      "inputs": [],
      "name": "mockLayerZeroVersion",
      "outputs": [
        {
          "internalType": "uint16",
          "name": "",
          "type": "uint16"
        }
      ],
      "stateMutability": "view",
      "type": "function"
    },
    {
      "inputs": [],
      "name": "mockLibraryVersion",
      "outputs": [
        {
          "internalType": "uint16",
          "name": "",
          "type": "uint16"
        }
      ],
      "stateMutability": "view",
      "type": "function"
    },
    {
      "inputs": [],
      "name": "mockOracle",
      "outputs": [
        {
          "internalType": "address payable",
          "name": "",
          "type": "address"
        }
      ],
      "stateMutability": "view",
      "type": "function"
    },
    {
      "inputs": [],
      "name": "mockRelayer",
      "outputs": [
        {
          "internalType": "address payable",
          "name": "",
          "type": "address"
        }
      ],
      "stateMutability": "view",
      "type": "function"
    },
    {
      "inputs": [],
      "name": "mockStaticNativeFee",
      "outputs": [
        {
          "internalType": "uint256",
          "name": "",
          "type": "uint256"
        }
      ],
      "stateMutability": "view",
      "type": "function"
    },
    {
      "inputs": [],
      "name": "nativeFee",
      "outputs": [
        {
          "internalType": "uint256",
          "name": "",
          "type": "uint256"
        }
      ],
      "stateMutability": "view",
      "type": "function"
    },
    {
      "inputs": [
        {
          "internalType": "uint16",
          "name": "",
          "type": "uint16"
        },
        {
          "internalType": "address",
          "name": "",
          "type": "address"
        }
      ],
      "name": "outboundNonce",
      "outputs": [
        {
          "internalType": "uint64",
          "name": "",
          "type": "uint64"
        }
      ],
      "stateMutability": "view",
      "type": "function"
    },
    {
      "inputs": [
        {
          "internalType": "bytes",
          "name": "_b",
          "type": "bytes"
        }
      ],
      "name": "packedBytesToAddr",
      "outputs": [
        {
          "internalType": "address",
          "name": "",
          "type": "address"
        }
      ],
      "stateMutability": "pure",
      "type": "function"
    },
    {
      "inputs": [
        {
          "internalType": "address",
          "name": "_destAddr",
          "type": "address"
        },
        {
          "internalType": "uint16",
          "name": "_srcChainId",
          "type": "uint16"
        },
        {
          "internalType": "bytes",
          "name": "_srcAddress",
          "type": "bytes"
        },
        {
          "internalType": "uint64",
          "name": "_nonce",
          "type": "uint64"
        },
        {
          "internalType": "bytes",
          "name": "_payload",
          "type": "bytes"
        }
      ],
      "name": "receiveAndForward",
      "outputs": [],
      "stateMutability": "nonpayable",
      "type": "function"
    },
    {
      "inputs": [
        {
          "internalType": "uint16",
          "name": "_srcChainId",
          "type": "uint16"
        },
        {
          "internalType": "bytes",
          "name": "_srcAddress",
          "type": "bytes"
        },
        {
          "internalType": "address",
          "name": "_dstAddress",
          "type": "address"
        },
        {
          "internalType": "uint64",
          "name": "_nonce",
          "type": "uint64"
        },
        {
          "internalType": "uint256",
          "name": "_gasLimit",
          "type": "uint256"
        },
        {
          "internalType": "bytes",
          "name": "_payload",
          "type": "bytes"
        }
      ],
      "name": "receivePayload",
      "outputs": [],
      "stateMutability": "nonpayable",
      "type": "function"
    },
    {
      "inputs": [
        {
          "internalType": "uint16",
          "name": "_srcChainId",
          "type": "uint16"
        },
        {
          "internalType": "bytes",
          "name": "_srcAddress",
          "type": "bytes"
        },
        {
          "internalType": "bytes",
          "name": "_payload",
          "type": "bytes"
        }
      ],
      "name": "retryPayload",
      "outputs": [],
      "stateMutability": "pure",
      "type": "function"
    },
    {
      "inputs": [
        {
          "internalType": "uint16",
          "name": "_chainId",
          "type": "uint16"
        },
        {
          "internalType": "bytes",
          "name": "_destination",
          "type": "bytes"
        },
        {
          "internalType": "bytes",
          "name": "_payload",
          "type": "bytes"
        },
        {
          "internalType": "address payable",
          "name": "",
          "type": "address"
        },
        {
          "internalType": "address",
          "name": "",
          "type": "address"
        },
        {
          "internalType": "bytes",
          "name": "dstGas",
          "type": "bytes"
        }
      ],
      "name": "send",
      "outputs": [],
      "stateMutability": "payable",
      "type": "function"
    },
    {
      "inputs": [
        {
          "internalType": "uint16",
          "name": "",
          "type": "uint16"
        },
        {
          "internalType": "uint16",
          "name": "",
          "type": "uint16"
        },
        {
          "internalType": "uint256",
          "name": "",
          "type": "uint256"
        },
        {
          "internalType": "bytes",
          "name": "",
          "type": "bytes"
        }
      ],
      "name": "setConfig",
      "outputs": [],
      "stateMutability": "nonpayable",
      "type": "function"
    },
    {
      "inputs": [
        {
          "internalType": "address",
          "name": "destAddr",
          "type": "address"
        },
        {
          "internalType": "address",
          "name": "lzEndpointAddr",
          "type": "address"
        }
      ],
      "name": "setDestLzEndpoint",
      "outputs": [],
      "stateMutability": "nonpayable",
      "type": "function"
    },
    {
      "inputs": [
        {
          "internalType": "uint256",
          "name": "_nativeFee",
          "type": "uint256"
        },
        {
          "internalType": "uint256",
          "name": "_zroFee",
          "type": "uint256"
        }
      ],
      "name": "setEstimatedFees",
      "outputs": [],
      "stateMutability": "nonpayable",
      "type": "function"
    },
    {
      "inputs": [
        {
          "internalType": "uint16",
          "name": "",
          "type": "uint16"
        }
      ],
      "name": "setReceiveVersion",
      "outputs": [],
      "stateMutability": "nonpayable",
      "type": "function"
    },
    {
      "inputs": [
        {
          "internalType": "uint16",
          "name": "",
          "type": "uint16"
        }
      ],
      "name": "setSendVersion",
      "outputs": [],
      "stateMutability": "nonpayable",
      "type": "function"
    },
    {
      "inputs": [],
      "name": "zroFee",
      "outputs": [
        {
          "internalType": "uint256",
          "name": "",
          "type": "uint256"
        }
      ],
      "stateMutability": "view",
      "type": "function"
    }
  ],
  "bytecode": "0x60806040523480156200001157600080fd5b50604051620020b5380380620020b5833981810160405281019062000037919062000098565b602a6005819055506001600660006101000a81548161ffff021916908361ffff16021790555080600160006101000a81548161ffff021916908361ffff16021790555050620000ec565b6000815190506200009281620000d2565b92915050565b600060208284031215620000ab57600080fd5b6000620000bb8482850162000081565b91505092915050565b600061ffff82169050919050565b620000dd81620000c4565b8114620000e957600080fd5b50565b611fb980620000fc6000396000f3fe60806040526004361061020f5760003560e01c8063aaff5f1611610118578063cbed8b9c116100a0578063df6ffbe91161006f578063df6ffbe914610803578063e961a9521461082c578063e97a448a14610857578063f5ecbdbc14610882578063fdc07c70146108bf5761020f565b8063cbed8b9c14610747578063da1a7c9a14610770578063dab31277146107ad578063db14f305146107d85761020f565b8063c08f15a1116100e7578063c08f15a114610671578063c2fa48131461069a578063c5803100146106c3578063c81b383a146106df578063ca066b351461071c5761020f565b8063aaff5f16146105b5578063af406aa5146105de578063b121077014610609578063b2086499146106345761020f565b806342d65a8d1161019b57806371ba2fd61161016a57806371ba2fd6146104965780637a145748146104d35780639924d33b14610510578063996f79c01461054d5780639c729da1146105785761020f565b806342d65a8d146103da5780634f055b04146104035780635952c4ec1461042e5780635b301135146104595761020f565b80630eaf6ea6116101e25780630eaf6ea6146102e257806310ddb1371461031f5780632646af08146103485780633408e4701461037157806340a7bb101461039c5761020f565b806305bc710f1461021457806307e0db171461023f578063096568f61461026857806309eddf54146102a5575b600080fd5b34801561022057600080fd5b506102296108fc565b6040516102369190611b3d565b60405180910390f35b34801561024b57600080fd5b506102666004803603810190610261919061132d565b610910565b005b34801561027457600080fd5b5061028f600480360381019061028a91906111dc565b610913565b60405161029c9190611b3d565b60405180910390f35b3480156102b157600080fd5b506102cc60048036038101906102c791906112e8565b61091e565b6040516102d99190611a07565b60405180910390f35b3480156102ee57600080fd5b50610309600480360381019061030491906116b8565b610940565b6040516103169190611aa0565b60405180910390f35b34801561032b57600080fd5b506103466004803603810190610341919061132d565b61094c565b005b34801561035457600080fd5b5061036f600480360381019061036a91906117ea565b61094f565b005b34801561037d57600080fd5b50610386610961565b6040516103939190611b3d565b60405180910390f35b3480156103a857600080fd5b506103c360048036038101906103be9190611392565b610979565b6040516103d1929190611bc6565b60405180910390f35b3480156103e657600080fd5b5061040160048036038101906103fc9190611439565b610990565b005b34801561040f57600080fd5b50610418610995565b6040516104259190611a22565b60405180910390f35b34801561043a57600080fd5b506104436109bb565b6040516104509190611bab565b60405180910390f35b34801561046557600080fd5b50610480600480360381019061047b91906111dc565b6109c1565b60405161048d9190611abb565b60405180910390f35b3480156104a257600080fd5b506104bd60048036038101906104b891906111dc565b6109f0565b6040516104ca9190611a07565b60405180910390f35b3480156104df57600080fd5b506104fa60048036038101906104f59190611356565b6109fa565b6040516105079190611bef565b60405180910390f35b34801561051c57600080fd5b50610537600480360381019061053291906116b8565b610a71565b6040516105449190611bef565b60405180910390f35b34801561055957600080fd5b50610562610abd565b60405161056f9190611bab565b60405180910390f35b34801561058457600080fd5b5061059f600480360381019061059a91906111dc565b610ac3565b6040516105ac9190611a07565b60405180910390f35b3480156105c157600080fd5b506105dc60048036038101906105d79190611554565b610acd565b005b3480156105ea57600080fd5b506105f3610ad4565b6040516106009190611bab565b60405180910390f35b34801561061557600080fd5b5061061e610ada565b60405161062b9190611b3d565b60405180910390f35b34801561064057600080fd5b5061065b60048036038101906106569190611356565b610aee565b6040516106689190611bef565b60405180910390f35b34801561067d57600080fd5b5061069860048036038101906106939190611205565b610b24565b005b3480156106a657600080fd5b506106c160048036038101906106bc9190611491565b610ba5565b005b6106dd60048036038101906106d891906115dd565b610baf565b005b3480156106eb57600080fd5b50610706600480360381019061070191906111dc565b610f32565b6040516107139190611a07565b60405180910390f35b34801561072857600080fd5b50610731610f65565b60405161073e9190611aa0565b60405180910390f35b34801561075357600080fd5b5061076e6004803603810190610769919061176f565b610f6a565b005b34801561077c57600080fd5b50610797600480360381019061079291906111dc565b610f70565b6040516107a49190611b3d565b60405180910390f35b3480156107b957600080fd5b506107c2610f7b565b6040516107cf9190611a22565b60405180910390f35b3480156107e457600080fd5b506107ed610fa1565b6040516107fa9190611b3d565b60405180910390f35b34801561080f57600080fd5b5061082a60048036038101906108259190611241565b610fb5565b005b34801561083857600080fd5b5061084161102c565b60405161084e9190611bab565b60405180910390f35b34801561086357600080fd5b5061086c611032565b6040516108799190611aa0565b60405180910390f35b34801561088e57600080fd5b506108a960048036038101906108a4919061170c565b611037565b6040516108b69190611abb565b60405180910390f35b3480156108cb57600080fd5b506108e660048036038101906108e19190611439565b611053565b6040516108f39190611bef565b60405180910390f35b600460009054906101000a900461ffff1681565b50565b600060019050919050565b60008060405160028401600286038237600a8103519150508091505092915050565b60006001905092915050565b50565b81600781905550806008819055505050565b6000600160009054906101000a900461ffff16905090565b600080600754915060085490509550959350505050565b505050565b600260009054906101000a900473ffffffffffffffffffffffffffffffffffffffff1681565b60035481565b60606000826040516020016109d691906119bc565b604051602081830303815290604052905080915050919050565b6000309050919050565b6000600a60008461ffff1661ffff16815260200190815260200160002060008373ffffffffffffffffffffffffffffffffffffffff1673ffffffffffffffffffffffffffffffffffffffff16815260200190815260200160002060009054906101000a900467ffffffffffffffff16905092915050565b6009602052816000526040600020818051602081018201805184825260208301602085012081835280955050505050506000915091509054906101000a900467ffffffffffffffff1681565b60075481565b6000309050919050565b5050505050565b60085481565b600660009054906101000a900461ffff1681565b600a6020528160005260406000206020528060005260406000206000915091509054906101000a900467ffffffffffffffff1681565b806000808473ffffffffffffffffffffffffffffffffffffffff1673ffffffffffffffffffffffffffffffffffffffff16815260200190815260200160002060006101000a81548173ffffffffffffffffffffffffffffffffffffffff021916908373ffffffffffffffffffffffffffffffffffffffff1602179055505050565b5050505050505050565b6000610bbb888861091e565b905060008060008373ffffffffffffffffffffffffffffffffffffffff1673ffffffffffffffffffffffffffffffffffffffff16815260200190815260200160002060009054906101000a900473ffffffffffffffffffffffffffffffffffffffff169050600073ffffffffffffffffffffffffffffffffffffffff168173ffffffffffffffffffffffffffffffffffffffff161415610c90576040517f08c379a0000000000000000000000000000000000000000000000000000000008152600401610c8790611add565b60405180910390fd5b6000600a60008c61ffff1661ffff16815260200190815260200160002060003373ffffffffffffffffffffffffffffffffffffffff1673ffffffffffffffffffffffffffffffffffffffff168152602001908152602001600020600081819054906101000a900467ffffffffffffffff16610d0a90611d87565b91906101000a81548167ffffffffffffffff021916908367ffffffffffffffff1602179055905060008060428601519150605686015190507390f79bf6eb2c4f870365e785982e1f101e93b90673ffffffffffffffffffffffffffffffffffffffff168173ffffffffffffffffffffffffffffffffffffffff161415610e13576101c58214610dce576040517f08c379a0000000000000000000000000000000000000000000000000000000008152600401610dc590611b1d565b60405180910390fd5b6001801415610e12576040517f08c379a0000000000000000000000000000000000000000000000000000000008152600401610e0990611afd565b60405180910390fd5b5b50506000610e20336109c1565b905081600960008e61ffff1661ffff16815260200190815260200160002033604051602001610e4f91906119bc565b604051602081830303815290604052604051610e6b91906119f0565b908152602001604051809103902060006101000a81548167ffffffffffffffff021916908367ffffffffffffffff1602179055508273ffffffffffffffffffffffffffffffffffffffff1663df6ffbe985600160009054906101000a900461ffff1684868e8e6040518763ffffffff1660e01b8152600401610ef296959493929190611a3d565b600060405180830381600087803b158015610f0c57600080fd5b505af1158015610f20573d6000803e3d6000fd5b50505050505050505050505050505050565b60006020528060005260406000206000915054906101000a900473ffffffffffffffffffffffffffffffffffffffff1681565b600090565b50505050565b600060019050919050565b600160029054906101000a900473ffffffffffffffffffffffffffffffffffffffff1681565b600160009054906101000a900461ffff1681565b8473ffffffffffffffffffffffffffffffffffffffff16621d3567858585856040518563ffffffff1660e01b8152600401610ff39493929190611b58565b600060405180830381600087803b15801561100d57600080fd5b505af1158015611021573d6000803e3d6000fd5b505050505050505050565b60055481565b600090565b6060604051806020016040528060008152509050949350505050565b6000600960008561ffff1661ffff16815260200190815260200160002083836040516110809291906119d7565b908152602001604051809103902060009054906101000a900467ffffffffffffffff1690509392505050565b60006110bf6110ba84611c2f565b611c0a565b9050828152602081018484840111156110d757600080fd5b6110e2848285611d14565b509392505050565b6000813590506110f981611ef9565b92915050565b60008135905061110e81611f10565b92915050565b60008135905061112381611f27565b92915050565b60008083601f84011261113b57600080fd5b8235905067ffffffffffffffff81111561115457600080fd5b60208301915083600182028301111561116c57600080fd5b9250929050565b600082601f83011261118457600080fd5b81356111948482602086016110ac565b91505092915050565b6000813590506111ac81611f3e565b92915050565b6000813590506111c181611f55565b92915050565b6000813590506111d681611f6c565b92915050565b6000602082840312156111ee57600080fd5b60006111fc848285016110ea565b91505092915050565b6000806040838503121561121857600080fd5b6000611226858286016110ea565b9250506020611237858286016110ea565b9150509250929050565b600080600080600060a0868803121561125957600080fd5b6000611267888289016110ea565b95505060206112788882890161119d565b945050604086013567ffffffffffffffff81111561129557600080fd5b6112a188828901611173565b93505060606112b2888289016111c7565b925050608086013567ffffffffffffffff8111156112cf57600080fd5b6112db88828901611173565b9150509295509295909350565b600080602083850312156112fb57600080fd5b600083013567ffffffffffffffff81111561131557600080fd5b61132185828601611129565b92509250509250929050565b60006020828403121561133f57600080fd5b600061134d8482850161119d565b91505092915050565b6000806040838503121561136957600080fd5b60006113778582860161119d565b9250506020611388858286016110ea565b9150509250929050565b600080600080600060a086880312156113aa57600080fd5b60006113b88882890161119d565b95505060206113c9888289016110ea565b945050604086013567ffffffffffffffff8111156113e657600080fd5b6113f288828901611173565b935050606061140388828901611114565b925050608086013567ffffffffffffffff81111561142057600080fd5b61142c88828901611173565b9150509295509295909350565b60008060006040848603121561144e57600080fd5b600061145c8682870161119d565b935050602084013567ffffffffffffffff81111561147957600080fd5b61148586828701611129565b92509250509250925092565b60008060008060008060008060c0898b0312156114ad57600080fd5b60006114bb8b828c0161119d565b985050602089013567ffffffffffffffff8111156114d857600080fd5b6114e48b828c01611129565b975097505060406114f78b828c016110ea565b95505060606115088b828c016111c7565b94505060806115198b828c016111b2565b93505060a089013567ffffffffffffffff81111561153657600080fd5b6115428b828c01611129565b92509250509295985092959890939650565b60008060008060006060868803121561156c57600080fd5b600061157a8882890161119d565b955050602086013567ffffffffffffffff81111561159757600080fd5b6115a388828901611129565b9450945050604086013567ffffffffffffffff8111156115c257600080fd5b6115ce88828901611129565b92509250509295509295909350565b60008060008060008060008060c0898b0312156115f957600080fd5b60006116078b828c0161119d565b985050602089013567ffffffffffffffff81111561162457600080fd5b6116308b828c01611129565b9750975050604089013567ffffffffffffffff81111561164f57600080fd5b61165b8b828c01611129565b9550955050606061166e8b828c016110ff565b935050608061167f8b828c016110ea565b92505060a089013567ffffffffffffffff81111561169c57600080fd5b6116a88b828c01611173565b9150509295985092959890939650565b600080604083850312156116cb57600080fd5b60006116d98582860161119d565b925050602083013567ffffffffffffffff8111156116f657600080fd5b61170285828601611173565b9150509250929050565b6000806000806080858703121561172257600080fd5b60006117308782880161119d565b94505060206117418782880161119d565b9350506040611752878288016110ea565b9250506060611763878288016111b2565b91505092959194509250565b6000806000806080858703121561178557600080fd5b60006117938782880161119d565b94505060206117a48782880161119d565b93505060406117b5878288016111b2565b925050606085013567ffffffffffffffff8111156117d257600080fd5b6117de87828801611173565b91505092959194509250565b600080604083850312156117fd57600080fd5b600061180b858286016111b2565b925050602061181c858286016111b2565b9150509250929050565b61182f81611caa565b82525050565b61183e81611c98565b82525050565b61185561185082611c98565b611db8565b82525050565b61186481611cbc565b82525050565b60006118768385611c6b565b9350611883838584611d14565b61188c83611e3a565b840190509392505050565b60006118a38385611c7c565b93506118b0838584611d14565b82840190509392505050565b60006118c782611c60565b6118d18185611c6b565b93506118e1818560208601611d23565b6118ea81611e3a565b840191505092915050565b600061190082611c60565b61190a8185611c7c565b935061191a818560208601611d23565b80840191505092915050565b6000611933603783611c87565b915061193e82611e58565b604082019050919050565b6000611956601583611c87565b915061196182611ea7565b602082019050919050565b6000611979600d83611c87565b915061198482611ed0565b602082019050919050565b61199881611cc8565b82525050565b6119a781611cf6565b82525050565b6119b681611d00565b82525050565b60006119c88284611844565b60148201915081905092915050565b60006119e4828486611897565b91508190509392505050565b60006119fc82846118f5565b915081905092915050565b6000602082019050611a1c6000830184611835565b92915050565b6000602082019050611a376000830184611826565b92915050565b600060a082019050611a526000830189611835565b611a5f602083018861198f565b8181036040830152611a7181876118bc565b9050611a8060608301866119ad565b8181036080830152611a9381848661186a565b9050979650505050505050565b6000602082019050611ab5600083018461185b565b92915050565b60006020820190508181036000830152611ad581846118bc565b905092915050565b60006020820190508181036000830152611af681611926565b9050919050565b60006020820190508181036000830152611b1681611949565b9050919050565b60006020820190508181036000830152611b368161196c565b9050919050565b6000602082019050611b52600083018461198f565b92915050565b6000608082019050611b6d600083018761198f565b8181036020830152611b7f81866118bc565b9050611b8e60408301856119ad565b8181036060830152611ba081846118bc565b905095945050505050565b6000602082019050611bc0600083018461199e565b92915050565b6000604082019050611bdb600083018561199e565b611be8602083018461199e565b9392505050565b6000602082019050611c0460008301846119ad565b92915050565b6000611c14611c25565b9050611c208282611d56565b919050565b6000604051905090565b600067ffffffffffffffff821115611c4a57611c49611e0b565b5b611c5382611e3a565b9050602081019050919050565b600081519050919050565b600082825260208201905092915050565b600081905092915050565b600082825260208201905092915050565b6000611ca382611cd6565b9050919050565b6000611cb582611cd6565b9050919050565b60008115159050919050565b600061ffff82169050919050565b600073ffffffffffffffffffffffffffffffffffffffff82169050919050565b6000819050919050565b600067ffffffffffffffff82169050919050565b82818337600083830152505050565b60005b83811015611d41578082015181840152602081019050611d26565b83811115611d50576000848401525b50505050565b611d5f82611e3a565b810181811067ffffffffffffffff82111715611d7e57611d7d611e0b565b5b80604052505050565b6000611d9282611d00565b915067ffffffffffffffff821415611dad57611dac611ddc565b5b600182019050919050565b6000611dc382611dca565b9050919050565b6000611dd582611e4b565b9050919050565b7f4e487b7100000000000000000000000000000000000000000000000000000000600052601160045260246000fd5b7f4e487b7100000000000000000000000000000000000000000000000000000000600052604160045260246000fd5b6000601f19601f8301169050919050565b60008160601b9050919050565b7f4c617965725a65726f4d6f636b3a2064657374696e6174696f6e204c6179657260008201527f5a65726f20456e64706f696e74206e6f7420666f756e64000000000000000000602082015250565b7f4e6174697665476173506172616d7320636865636b0000000000000000000000600082015250565b7f47617320696e636f727265637400000000000000000000000000000000000000600082015250565b611f0281611c98565b8114611f0d57600080fd5b50565b611f1981611caa565b8114611f2457600080fd5b50565b611f3081611cbc565b8114611f3b57600080fd5b50565b611f4781611cc8565b8114611f5257600080fd5b50565b611f5e81611cf6565b8114611f6957600080fd5b50565b611f7581611d00565b8114611f8057600080fd5b5056fea264697066735822122053db176800bce6e8cc005ca7dfd3fec8c6f809a46571c7240ac49b4dc403c02a64736f6c63430008040033",
  "linkReferences": {},
  "deployedLinkReferences": {}
}