{
  "_format": "hh-sol-artifact-1",
  "contractName": "OmniCounter",
  "sourceName": "contracts/OmniCounter.sol",
  "abi": [
    {
      "inputs": [
        {
          "internalType": "address",
          "name": "_endpoint",
          "type": "address"
        }
      ],
      "stateMutability": "nonpayable",
      "type": "constructor"
    },
    {
      "anonymous": false,
      "inputs": [
        {
          "indexed": true,
          "internalType": "address",
          "name": "previousOwner",
          "type": "address"
        },
        {
          "indexed": true,
          "internalType": "address",
          "name": "newOwner",
          "type": "address"
        }
      ],
      "name": "OwnershipTransferred",
      "type": "event"
    },
    {
      "stateMutability": "payable",
      "type": "fallback"
    },
    {
      "inputs": [],
      "name": "endpoint",
      "outputs": [
        {
          "internalType": "contract ILayerZeroEndpoint",
          "name": "",
          "type": "address"
        }
      ],
      "stateMutability": "view",
      "type": "function"
    },
    {
      "inputs": [
        {
          "internalType": "uint16",
          "name": "_srcChainId",
          "type": "uint16"
        },
        {
          "internalType": "bytes",
          "name": "_srcAddress",
          "type": "bytes"
        }
      ],
      "name": "forceResumeReceive",
      "outputs": [],
      "stateMutability": "nonpayable",
      "type": "function"
    },
    {
      "inputs": [
        {
          "internalType": "uint16",
          "name": "",
          "type": "uint16"
        },
        {
          "internalType": "uint16",
          "name": "_chainId",
          "type": "uint16"
        },
        {
          "internalType": "address",
          "name": "",
          "type": "address"
        },
        {
          "internalType": "uint256",
          "name": "_configType",
          "type": "uint256"
        }
      ],
      "name": "getConfig",
      "outputs": [
        {
          "internalType": "bytes",
          "name": "",
          "type": "bytes"
        }
      ],
      "stateMutability": "view",
      "type": "function"
    },
    {
      "inputs": [],
      "name": "getCounter",
      "outputs": [
        {
          "internalType": "uint256",
          "name": "",
          "type": "uint256"
        }
      ],
      "stateMutability": "view",
      "type": "function"
    },
    {
      "inputs": [],
      "name": "getReceiveVersion",
      "outputs": [
        {
          "internalType": "uint16",
          "name": "",
          "type": "uint16"
        }
      ],
      "stateMutability": "view",
      "type": "function"
    },
    {
      "inputs": [],
      "name": "getSendVersion",
      "outputs": [
        {
          "internalType": "uint16",
          "name": "",
          "type": "uint16"
        }
      ],
      "stateMutability": "view",
      "type": "function"
    },
    {
      "inputs": [
        {
          "internalType": "uint16",
          "name": "_dstChainId",
          "type": "uint16"
        },
        {
          "internalType": "bytes",
          "name": "_dstCounterMockAddress",
          "type": "bytes"
        }
      ],
      "name": "incrementCounter",
      "outputs": [],
      "stateMutability": "payable",
      "type": "function"
    },
    {
      "inputs": [
        {
          "internalType": "uint16",
          "name": "_dstChainId",
          "type": "uint16"
        },
        {
          "internalType": "bytes",
          "name": "_dstCounterMockAddress",
          "type": "bytes"
        },
        {
          "internalType": "uint256",
          "name": "gasAmountForDst",
          "type": "uint256"
        }
      ],
      "name": "incrementCounterWithAdapterParamsV1",
      "outputs": [],
      "stateMutability": "payable",
      "type": "function"
    },
    {
      "inputs": [
        {
          "internalType": "uint16",
          "name": "_dstChainId",
          "type": "uint16"
        },
        {
          "internalType": "bytes",
          "name": "_dstCounterMockAddress",
          "type": "bytes"
        },
        {
          "internalType": "uint256",
          "name": "gasAmountForDst",
          "type": "uint256"
        },
        {
          "internalType": "uint256",
          "name": "airdropEthQty",
          "type": "uint256"
        },
        {
          "internalType": "address",
          "name": "airdropAddr",
          "type": "address"
        }
      ],
      "name": "incrementCounterWithAdapterParamsV2",
      "outputs": [],
      "stateMutability": "payable",
      "type": "function"
    },
    {
      "inputs": [
        {
          "internalType": "uint16[]",
          "name": "_dstChainIds",
          "type": "uint16[]"
        },
        {
          "internalType": "bytes[]",
          "name": "_dstCounterMockAddresses",
          "type": "bytes[]"
        },
        {
          "internalType": "address payable",
          "name": "_refundAddr",
          "type": "address"
        }
      ],
      "name": "incrementMultiCounter",
      "outputs": [],
      "stateMutability": "payable",
      "type": "function"
    },
    {
      "inputs": [
        {
          "internalType": "uint16",
          "name": "_srcChainId",
          "type": "uint16"
        },
        {
          "internalType": "bytes",
          "name": "_srcAddress",
          "type": "bytes"
        },
        {
          "internalType": "uint64",
          "name": "",
          "type": "uint64"
        },
        {
          "internalType": "bytes",
          "name": "",
          "type": "bytes"
        }
      ],
      "name": "lzReceive",
      "outputs": [],
      "stateMutability": "nonpayable",
      "type": "function"
    },
    {
      "inputs": [],
      "name": "messageCounter",
      "outputs": [
        {
          "internalType": "uint256",
          "name": "",
          "type": "uint256"
        }
      ],
      "stateMutability": "view",
      "type": "function"
    },
    {
      "inputs": [],
      "name": "owner",
      "outputs": [
        {
          "internalType": "address",
          "name": "",
          "type": "address"
        }
      ],
      "stateMutability": "view",
      "type": "function"
    },
    {
      "inputs": [
        {
          "internalType": "uint16",
          "name": "",
          "type": "uint16"
        }
      ],
      "name": "remotes",
      "outputs": [
        {
          "internalType": "bytes",
          "name": "",
          "type": "bytes"
        }
      ],
      "stateMutability": "view",
      "type": "function"
    },
    {
      "inputs": [],
      "name": "renounceOwnership",
      "outputs": [],
      "stateMutability": "nonpayable",
      "type": "function"
    },
    {
      "inputs": [
        {
          "internalType": "uint16",
          "name": "",
          "type": "uint16"
        },
        {
          "internalType": "uint16",
          "name": "_chainId",
          "type": "uint16"
        },
        {
          "internalType": "uint256",
          "name": "_configType",
          "type": "uint256"
        },
        {
          "internalType": "bytes",
          "name": "_config",
          "type": "bytes"
        }
      ],
      "name": "setConfig",
      "outputs": [],
      "stateMutability": "nonpayable",
      "type": "function"
    },
    {
      "inputs": [
        {
          "internalType": "uint16",
          "name": "remoteChainId",
          "type": "uint16"
        },
        {
          "internalType": "uint16",
          "name": "confirmations",
          "type": "uint16"
        }
      ],
      "name": "setInboundConfirmations",
      "outputs": [],
      "stateMutability": "nonpayable",
      "type": "function"
    },
    {
      "inputs": [
        {
          "internalType": "uint16",
          "name": "dstChainId",
          "type": "uint16"
        },
        {
          "internalType": "address",
          "name": "oracle",
          "type": "address"
        }
      ],
      "name": "setOracle",
      "outputs": [],
      "stateMutability": "nonpayable",
      "type": "function"
    },
    {
      "inputs": [
        {
          "internalType": "uint16",
          "name": "remoteChainId",
          "type": "uint16"
        },
        {
          "internalType": "uint16",
          "name": "confirmations",
          "type": "uint16"
        }
      ],
      "name": "setOutboundConfirmations",
      "outputs": [],
      "stateMutability": "nonpayable",
      "type": "function"
    },
    {
      "inputs": [
        {
          "internalType": "uint16",
          "name": "version",
          "type": "uint16"
        }
      ],
      "name": "setReceiveVersion",
      "outputs": [],
      "stateMutability": "nonpayable",
      "type": "function"
    },
    {
      "inputs": [
        {
          "internalType": "uint16",
          "name": "_chainId",
          "type": "uint16"
        },
        {
          "internalType": "bytes",
          "name": "_remoteAddress",
          "type": "bytes"
        }
      ],
      "name": "setRemote",
      "outputs": [],
      "stateMutability": "nonpayable",
      "type": "function"
    },
    {
      "inputs": [
        {
          "internalType": "uint16",
          "name": "version",
          "type": "uint16"
        }
      ],
      "name": "setSendVersion",
      "outputs": [],
      "stateMutability": "nonpayable",
      "type": "function"
    },
    {
      "inputs": [
        {
          "internalType": "address",
          "name": "newOwner",
          "type": "address"
        }
      ],
      "name": "transferOwnership",
      "outputs": [],
      "stateMutability": "nonpayable",
      "type": "function"
    },
    {
      "stateMutability": "payable",
      "type": "receive"
    }
  ],
  "bytecode": "0x60806040523480156200001157600080fd5b5060405162002f6b38038062002f6b833981810160405281019062000037919062000182565b620000576200004b6200009f60201b60201c565b620000a760201b60201c565b80600260006101000a81548173ffffffffffffffffffffffffffffffffffffffff021916908373ffffffffffffffffffffffffffffffffffffffff16021790555050620001fc565b600033905090565b60008060009054906101000a900473ffffffffffffffffffffffffffffffffffffffff169050816000806101000a81548173ffffffffffffffffffffffffffffffffffffffff021916908373ffffffffffffffffffffffffffffffffffffffff1602179055508173ffffffffffffffffffffffffffffffffffffffff168173ffffffffffffffffffffffffffffffffffffffff167f8be0079c531659141344cd1fd0a4f28419497f9722a3daafe3b4186f6b6457e060405160405180910390a35050565b6000815190506200017c81620001e2565b92915050565b6000602082840312156200019557600080fd5b6000620001a5848285016200016b565b91505092915050565b6000620001bb82620001c2565b9050919050565b600073ffffffffffffffffffffffffffffffffffffffff82169050919050565b620001ed81620001ae565b8114620001f957600080fd5b50565b612d5f806200020c6000396000f3fe6080604052600436106101435760003560e01c80636df65371116100b6578063cbed8b9c1161006f578063cbed8b9c146103f7578063cf5d147114610420578063ea80d9391461044b578063ed0cc14f14610467578063f2fde38b14610483578063f5ecbdbc146104ac5761014a565b80636df6537114610308578063715018a6146103315780638ada066e146103485780638da5cb5b146103735780639d1f61131461039e578063a245b77b146103db5761014a565b80632b2257dc116101085780632b2257dc1461020c57806342d65a8d14610235578063492e527e1461025e578063529c75881461028757806354a5beda146102b25780635e280f11146102dd5761014a565b80621d35671461014c57806307e0db171461017557806308d968b91461019e57806310ddb137146101ba57806320cdd0a1146101e35761014a565b3661014a57005b005b34801561015857600080fd5b50610173600480360381019061016e9190611e87565b6104e9565b005b34801561018157600080fd5b5061019c60048036038101906101979190611ca3565b61060d565b005b6101b860048036038101906101b39190611df5565b61069d565b005b3480156101c657600080fd5b506101e160048036038101906101dc9190611ca3565b610781565b005b3480156101ef57600080fd5b5061020a60048036038101906102059190611d31565b610811565b005b34801561021857600080fd5b50610233600480360381019061022e9190611f1a565b610927565b005b34801561024157600080fd5b5061025c60048036038101906102579190611d31565b610a88565b005b34801561026a57600080fd5b5061028560048036038101906102809190611cf5565b610a8d565b005b34801561029357600080fd5b5061029c610bf4565b6040516102a9919061260e565b60405180910390f35b3480156102be57600080fd5b506102c7610bfa565b6040516102d49190612404565b60405180910390f35b3480156102e957600080fd5b506102f2610cac565b6040516102ff9190612349565b60405180910390f35b34801561031457600080fd5b5061032f600480360381019061032a9190611f1a565b610cd2565b005b34801561033d57600080fd5b50610346610e33565b005b34801561035457600080fd5b5061035d610ebb565b60405161036a919061260e565b60405180910390f35b34801561037f57600080fd5b50610388610ec5565b604051610395919061230c565b60405180910390f35b3480156103aa57600080fd5b506103c560048036038101906103c09190611ca3565b610eee565b6040516103d29190612327565b60405180910390f35b6103f560048036038101906103f09190611d89565b610f8e565b005b34801561040357600080fd5b5061041e60048036038101906104199190611fb9565b61106c565b005b34801561042c57600080fd5b506104356111b2565b6040516104429190612404565b60405180910390f35b61046560048036038101906104609190611bd9565b611264565b005b610481600480360381019061047c9190611d31565b6114b1565b005b34801561048f57600080fd5b506104aa60048036038101906104a59190611bb0565b61156f565b005b3480156104b857600080fd5b506104d360048036038101906104ce9190611f56565b611667565b6040516104e09190612327565b60405180910390f35b600260009054906101000a900473ffffffffffffffffffffffffffffffffffffffff1673ffffffffffffffffffffffffffffffffffffffff163373ffffffffffffffffffffffffffffffffffffffff161461054357600080fd5b600360008561ffff1661ffff168152602001908152602001600020805461056990612932565b905083511480156105af5750600360008561ffff1661ffff16815260200190815260200160002060405161059d919061227b565b60405180910390208380519060200120145b6105ee576040517f08c379a00000000000000000000000000000000000000000000000000000000081526004016105e5906123a4565b60405180910390fd5b60018060008282546106009190612723565b9250508190555050505050565b600260009054906101000a900473ffffffffffffffffffffffffffffffffffffffff1673ffffffffffffffffffffffffffffffffffffffff166307e0db17826040518263ffffffff1660e01b81526004016106689190612404565b600060405180830381600087803b15801561068257600080fd5b505af1158015610696573d6000803e3d6000fd5b5050505050565b6000600290506000818585856040516020016106bc94939291906122be565b6040516020818303038152906040529050600260009054906101000a900473ffffffffffffffffffffffffffffffffffffffff1673ffffffffffffffffffffffffffffffffffffffff1663c5803100348a8a8a60405180602001604052806000815250336000896040518963ffffffff1660e01b8152600401610745979695949392919061241f565b6000604051808303818588803b15801561075e57600080fd5b505af1158015610772573d6000803e3d6000fd5b50505050505050505050505050565b600260009054906101000a900473ffffffffffffffffffffffffffffffffffffffff1673ffffffffffffffffffffffffffffffffffffffff166310ddb137826040518263ffffffff1660e01b81526004016107dc9190612404565b600060405180830381600087803b1580156107f657600080fd5b505af115801561080a573d6000803e3d6000fd5b5050505050565b6108196117d3565b73ffffffffffffffffffffffffffffffffffffffff16610837610ec5565b73ffffffffffffffffffffffffffffffffffffffff161461088d576040517f08c379a0000000000000000000000000000000000000000000000000000000008152600401610884906123c4565b60405180910390fd5b6000600360008561ffff1661ffff16815260200190815260200160002080546108b590612932565b9050146108f7576040517f08c379a00000000000000000000000000000000000000000000000000000000081526004016108ee906123e4565b60405180910390fd5b8181600360008661ffff1661ffff16815260200190815260200160002091906109219291906118e1565b50505050565b600260009054906101000a900473ffffffffffffffffffffffffffffffffffffffff1673ffffffffffffffffffffffffffffffffffffffff1663cbed8b9c600260009054906101000a900473ffffffffffffffffffffffffffffffffffffffff1673ffffffffffffffffffffffffffffffffffffffff1663096568f6306040518263ffffffff1660e01b81526004016109c0919061230c565b60206040518083038186803b1580156109d857600080fd5b505afa1580156109ec573d6000803e3d6000fd5b505050506040513d601f19601f82011682018060405250810190610a109190611ccc565b84600585604051602001610a249190612404565b6040516020818303038152906040526040518563ffffffff1660e01b8152600401610a529493929190612528565b600060405180830381600087803b158015610a6c57600080fd5b505af1158015610a80573d6000803e3d6000fd5b505050505050565b505050565b600060069050600260009054906101000a900473ffffffffffffffffffffffffffffffffffffffff1673ffffffffffffffffffffffffffffffffffffffff1663cbed8b9c600260009054906101000a900473ffffffffffffffffffffffffffffffffffffffff1673ffffffffffffffffffffffffffffffffffffffff1663096568f6306040518263ffffffff1660e01b8152600401610b2c919061230c565b60206040518083038186803b158015610b4457600080fd5b505afa158015610b58573d6000803e3d6000fd5b505050506040513d601f19601f82011682018060405250810190610b7c9190611ccc565b858486604051602001610b8f919061230c565b6040516020818303038152906040526040518563ffffffff1660e01b8152600401610bbd94939291906125c2565b600060405180830381600087803b158015610bd757600080fd5b505af1158015610beb573d6000803e3d6000fd5b50505050505050565b60015481565b6000600260009054906101000a900473ffffffffffffffffffffffffffffffffffffffff1673ffffffffffffffffffffffffffffffffffffffff1663096568f6306040518263ffffffff1660e01b8152600401610c57919061230c565b60206040518083038186803b158015610c6f57600080fd5b505afa158015610c83573d6000803e3d6000fd5b505050506040513d601f19601f82011682018060405250810190610ca79190611ccc565b905090565b600260009054906101000a900473ffffffffffffffffffffffffffffffffffffffff1681565b600260009054906101000a900473ffffffffffffffffffffffffffffffffffffffff1673ffffffffffffffffffffffffffffffffffffffff1663cbed8b9c600260009054906101000a900473ffffffffffffffffffffffffffffffffffffffff1673ffffffffffffffffffffffffffffffffffffffff1663096568f6306040518263ffffffff1660e01b8152600401610d6b919061230c565b60206040518083038186803b158015610d8357600080fd5b505afa158015610d97573d6000803e3d6000fd5b505050506040513d601f19601f82011682018060405250810190610dbb9190611ccc565b84600285604051602001610dcf9190612404565b6040516020818303038152906040526040518563ffffffff1660e01b8152600401610dfd94939291906124dc565b600060405180830381600087803b158015610e1757600080fd5b505af1158015610e2b573d6000803e3d6000fd5b505050505050565b610e3b6117d3565b73ffffffffffffffffffffffffffffffffffffffff16610e59610ec5565b73ffffffffffffffffffffffffffffffffffffffff1614610eaf576040517f08c379a0000000000000000000000000000000000000000000000000000000008152600401610ea6906123c4565b60405180910390fd5b610eb960006117db565b565b6000600154905090565b60008060009054906101000a900473ffffffffffffffffffffffffffffffffffffffff16905090565b60036020528060005260406000206000915090508054610f0d90612932565b80601f0160208091040260200160405190810160405280929190818152602001828054610f3990612932565b8015610f865780601f10610f5b57610100808354040283529160200191610f86565b820191906000526020600020905b815481529060010190602001808311610f6957829003601f168201915b505050505081565b60006001905060008183604051602001610fa9929190612292565b6040516020818303038152906040529050600260009054906101000a900473ffffffffffffffffffffffffffffffffffffffff1673ffffffffffffffffffffffffffffffffffffffff1663c58031003488888860405180602001604052806000815250336000896040518963ffffffff1660e01b8152600401611032979695949392919061241f565b6000604051808303818588803b15801561104b57600080fd5b505af115801561105f573d6000803e3d6000fd5b5050505050505050505050565b600260009054906101000a900473ffffffffffffffffffffffffffffffffffffffff1673ffffffffffffffffffffffffffffffffffffffff1663cbed8b9c600260009054906101000a900473ffffffffffffffffffffffffffffffffffffffff1673ffffffffffffffffffffffffffffffffffffffff1663096568f6306040518263ffffffff1660e01b8152600401611105919061230c565b60206040518083038186803b15801561111d57600080fd5b505afa158015611131573d6000803e3d6000fd5b505050506040513d601f19601f820116820180604052508101906111559190611ccc565b868686866040518663ffffffff1660e01b8152600401611179959493929190612574565b600060405180830381600087803b15801561119357600080fd5b505af11580156111a7573d6000803e3d6000fd5b505050505050505050565b6000600260009054906101000a900473ffffffffffffffffffffffffffffffffffffffff1673ffffffffffffffffffffffffffffffffffffffff1663da1a7c9a306040518263ffffffff1660e01b815260040161120f919061230c565b60206040518083038186803b15801561122757600080fd5b505afa15801561123b573d6000803e3d6000fd5b505050506040513d601f19601f8201168201806040525081019061125f9190611ccc565b905090565b8282905085859050146112ac576040517f08c379a00000000000000000000000000000000000000000000000000000000081526004016112a390612364565b60405180910390fd5b600085859050905060006112c9823461189f90919063ffffffff16565b905060005b8281101561143657600260009054906101000a900473ffffffffffffffffffffffffffffffffffffffff1673ffffffffffffffffffffffffffffffffffffffff1663c5803100838a8a8581811061134e577f4e487b7100000000000000000000000000000000000000000000000000000000600052603260045260246000fd5b90506020020160208101906113639190611ca3565b89898681811061139c577f4e487b7100000000000000000000000000000000000000000000000000000000600052603260045260246000fd5b90506020028101906113ae9190612629565b604051806020016040528060008152508a6000604051806020016040528060008152506040518963ffffffff1660e01b81526004016113f3979695949392919061241f565b6000604051808303818588803b15801561140c57600080fd5b505af1158015611420573d6000803e3d6000fd5b50505050508061142f90612995565b90506112ce565b50600061145e61144f84846118b590919063ffffffff16565b346118cb90919063ffffffff16565b90508373ffffffffffffffffffffffffffffffffffffffff166108fc829081150290604051600060405180830381858888f193505050501580156114a6573d6000803e3d6000fd5b505050505050505050565b600260009054906101000a900473ffffffffffffffffffffffffffffffffffffffff1673ffffffffffffffffffffffffffffffffffffffff1663c58031003485858560405180602001604052806000815250336000604051806020016040528060008152506040518963ffffffff1660e01b8152600401611538979695949392919061241f565b6000604051808303818588803b15801561155157600080fd5b505af1158015611565573d6000803e3d6000fd5b5050505050505050565b6115776117d3565b73ffffffffffffffffffffffffffffffffffffffff16611595610ec5565b73ffffffffffffffffffffffffffffffffffffffff16146115eb576040517f08c379a00000000000000000000000000000000000000000000000000000000081526004016115e2906123c4565b60405180910390fd5b600073ffffffffffffffffffffffffffffffffffffffff168173ffffffffffffffffffffffffffffffffffffffff16141561165b576040517f08c379a000000000000000000000000000000000000000000000000000000000815260040161165290612384565b60405180910390fd5b611664816117db565b50565b6060600260009054906101000a900473ffffffffffffffffffffffffffffffffffffffff1673ffffffffffffffffffffffffffffffffffffffff1663f5ecbdbc600260009054906101000a900473ffffffffffffffffffffffffffffffffffffffff1673ffffffffffffffffffffffffffffffffffffffff1663096568f6306040518263ffffffff1660e01b8152600401611702919061230c565b60206040518083038186803b15801561171a57600080fd5b505afa15801561172e573d6000803e3d6000fd5b505050506040513d601f19601f820116820180604052508101906117529190611ccc565b8630866040518563ffffffff1660e01b81526004016117749493929190612497565b60006040518083038186803b15801561178c57600080fd5b505afa1580156117a0573d6000803e3d6000fd5b505050506040513d6000823e3d601f19601f820116820180604052508101906117c99190611c62565b9050949350505050565b600033905090565b60008060009054906101000a900473ffffffffffffffffffffffffffffffffffffffff169050816000806101000a81548173ffffffffffffffffffffffffffffffffffffffff021916908373ffffffffffffffffffffffffffffffffffffffff1602179055508173ffffffffffffffffffffffffffffffffffffffff168173ffffffffffffffffffffffffffffffffffffffff167f8be0079c531659141344cd1fd0a4f28419497f9722a3daafe3b4186f6b6457e060405160405180910390a35050565b600081836118ad9190612779565b905092915050565b600081836118c391906127aa565b905092915050565b600081836118d99190612804565b905092915050565b8280546118ed90612932565b90600052602060002090601f01602090048101928261190f5760008555611956565b82601f1061192857803560ff1916838001178555611956565b82800160010185558215611956579182015b8281111561195557823582559160200191906001019061193a565b5b5090506119639190611967565b5090565b5b80821115611980576000816000905550600101611968565b5090565b6000611997611992846126a5565b612680565b9050828152602081018484840111156119af57600080fd5b6119ba8482856128f0565b509392505050565b60006119d56119d0846126a5565b612680565b9050828152602081018484840111156119ed57600080fd5b6119f88482856128ff565b509392505050565b600081359050611a0f81612cb6565b92915050565b600081359050611a2481612ccd565b92915050565b60008083601f840112611a3c57600080fd5b8235905067ffffffffffffffff811115611a5557600080fd5b602083019150836020820283011115611a6d57600080fd5b9250929050565b60008083601f840112611a8657600080fd5b8235905067ffffffffffffffff811115611a9f57600080fd5b602083019150836020820283011115611ab757600080fd5b9250929050565b60008083601f840112611ad057600080fd5b8235905067ffffffffffffffff811115611ae957600080fd5b602083019150836001820283011115611b0157600080fd5b9250929050565b600082601f830112611b1957600080fd5b8135611b29848260208601611984565b91505092915050565b600082601f830112611b4357600080fd5b8151611b538482602086016119c2565b91505092915050565b600081359050611b6b81612ce4565b92915050565b600081519050611b8081612ce4565b92915050565b600081359050611b9581612cfb565b92915050565b600081359050611baa81612d12565b92915050565b600060208284031215611bc257600080fd5b6000611bd084828501611a00565b91505092915050565b600080600080600060608688031215611bf157600080fd5b600086013567ffffffffffffffff811115611c0b57600080fd5b611c1788828901611a74565b9550955050602086013567ffffffffffffffff811115611c3657600080fd5b611c4288828901611a2a565b93509350506040611c5588828901611a15565b9150509295509295909350565b600060208284031215611c7457600080fd5b600082015167ffffffffffffffff811115611c8e57600080fd5b611c9a84828501611b32565b91505092915050565b600060208284031215611cb557600080fd5b6000611cc384828501611b5c565b91505092915050565b600060208284031215611cde57600080fd5b6000611cec84828501611b71565b91505092915050565b60008060408385031215611d0857600080fd5b6000611d1685828601611b5c565b9250506020611d2785828601611a00565b9150509250929050565b600080600060408486031215611d4657600080fd5b6000611d5486828701611b5c565b935050602084013567ffffffffffffffff811115611d7157600080fd5b611d7d86828701611abe565b92509250509250925092565b60008060008060608587031215611d9f57600080fd5b6000611dad87828801611b5c565b945050602085013567ffffffffffffffff811115611dca57600080fd5b611dd687828801611abe565b93509350506040611de987828801611b86565b91505092959194509250565b60008060008060008060a08789031215611e0e57600080fd5b6000611e1c89828a01611b5c565b965050602087013567ffffffffffffffff811115611e3957600080fd5b611e4589828a01611abe565b95509550506040611e5889828a01611b86565b9350506060611e6989828a01611b86565b9250506080611e7a89828a01611a00565b9150509295509295509295565b60008060008060808587031215611e9d57600080fd5b6000611eab87828801611b5c565b945050602085013567ffffffffffffffff811115611ec857600080fd5b611ed487828801611b08565b9350506040611ee587828801611b9b565b925050606085013567ffffffffffffffff811115611f0257600080fd5b611f0e87828801611b08565b91505092959194509250565b60008060408385031215611f2d57600080fd5b6000611f3b85828601611b5c565b9250506020611f4c85828601611b5c565b9150509250929050565b60008060008060808587031215611f6c57600080fd5b6000611f7a87828801611b5c565b9450506020611f8b87828801611b5c565b9350506040611f9c87828801611a00565b9250506060611fad87828801611b86565b91505092959194509250565b600080600080600060808688031215611fd157600080fd5b6000611fdf88828901611b5c565b9550506020611ff088828901611b5c565b945050604061200188828901611b86565b935050606086013567ffffffffffffffff81111561201e57600080fd5b61202a88828901611abe565b92509250509295509295909350565b6120428161284a565b82525050565b61205181612838565b82525050565b61206861206382612838565b6129de565b82525050565b600061207a83856126f6565b93506120878385846128f0565b61209083612ada565b840190509392505050565b60006120a6826126eb565b6120b081856126f6565b93506120c08185602086016128ff565b6120c981612ada565b840191505092915050565b600081546120e181612932565b6120eb8186612707565b9450600182166000811461210657600181146121175761214a565b60ff1983168652818601935061214a565b612120856126d6565b60005b8381101561214257815481890152600182019150602081019050612123565b838801955050505b50505092915050565b61215c816128a8565b82525050565b61216b816128cc565b82525050565b61217a816128de565b82525050565b600061218d604183612712565b915061219882612b05565b606082019050919050565b60006121b0602683612712565b91506121bb82612b7a565b604082019050919050565b60006121d3605683612712565b91506121de82612bc9565b606082019050919050565b60006121f6602083612712565b915061220182612c3e565b602082019050919050565b6000612219603883612712565b915061222482612c67565b604082019050919050565b6122388161285c565b82525050565b61224f61224a8261285c565b6129f0565b82525050565b61225e8161288a565b82525050565b6122756122708261288a565b612a14565b82525050565b600061228782846120d4565b915081905092915050565b600061229e828561223e565b6002820191506122ae8284612264565b6020820191508190509392505050565b60006122ca828761223e565b6002820191506122da8286612264565b6020820191506122ea8285612264565b6020820191506122fa8284612057565b60148201915081905095945050505050565b60006020820190506123216000830184612048565b92915050565b60006020820190508181036000830152612341818461209b565b905092915050565b600060208201905061235e6000830184612153565b92915050565b6000602082019050818103600083015261237d81612180565b9050919050565b6000602082019050818103600083015261239d816121a3565b9050919050565b600060208201905081810360008301526123bd816121c6565b9050919050565b600060208201905081810360008301526123dd816121e9565b9050919050565b600060208201905081810360008301526123fd8161220c565b9050919050565b6000602082019050612419600083018461222f565b92915050565b600060c082019050612434600083018a61222f565b818103602083015261244781888a61206e565b9050818103604083015261245b818761209b565b905061246a6060830186612039565b6124776080830185612048565b81810360a0830152612489818461209b565b905098975050505050505050565b60006080820190506124ac600083018761222f565b6124b9602083018661222f565b6124c66040830185612048565b6124d36060830184612255565b95945050505050565b60006080820190506124f1600083018761222f565b6124fe602083018661222f565b61250b6040830185612162565b818103606083015261251d818461209b565b905095945050505050565b600060808201905061253d600083018761222f565b61254a602083018661222f565b6125576040830185612171565b8181036060830152612569818461209b565b905095945050505050565b6000608082019050612589600083018861222f565b612596602083018761222f565b6125a36040830186612255565b81810360608301526125b681848661206e565b90509695505050505050565b60006080820190506125d7600083018761222f565b6125e4602083018661222f565b6125f16040830185612255565b8181036060830152612603818461209b565b905095945050505050565b60006020820190506126236000830184612255565b92915050565b6000808335600160200384360303811261264257600080fd5b80840192508235915067ffffffffffffffff82111561266057600080fd5b60208301925060018202360383131561267857600080fd5b509250929050565b600061268a61269b565b90506126968282612964565b919050565b6000604051905090565b600067ffffffffffffffff8211156126c0576126bf612aab565b5b6126c982612ada565b9050602081019050919050565b60008190508160005260206000209050919050565b600081519050919050565b600082825260208201905092915050565b600081905092915050565b600082825260208201905092915050565b600061272e8261288a565b91506127398361288a565b9250827fffffffffffffffffffffffffffffffffffffffffffffffffffffffffffffffff0382111561276e5761276d612a1e565b5b828201905092915050565b60006127848261288a565b915061278f8361288a565b92508261279f5761279e612a4d565b5b828204905092915050565b60006127b58261288a565b91506127c08361288a565b9250817fffffffffffffffffffffffffffffffffffffffffffffffffffffffffffffffff04831182151516156127f9576127f8612a1e565b5b828202905092915050565b600061280f8261288a565b915061281a8361288a565b92508282101561282d5761282c612a1e565b5b828203905092915050565b60006128438261286a565b9050919050565b60006128558261286a565b9050919050565b600061ffff82169050919050565b600073ffffffffffffffffffffffffffffffffffffffff82169050919050565b6000819050919050565b600067ffffffffffffffff82169050919050565b60006128b3826128ba565b9050919050565b60006128c58261286a565b9050919050565b60006128d78261288a565b9050919050565b60006128e98261288a565b9050919050565b82818337600083830152505050565b60005b8381101561291d578082015181840152602081019050612902565b8381111561292c576000848401525b50505050565b6000600282049050600182168061294a57607f821691505b6020821081141561295e5761295d612a7c565b5b50919050565b61296d82612ada565b810181811067ffffffffffffffff8211171561298c5761298b612aab565b5b80604052505050565b60006129a08261288a565b91507fffffffffffffffffffffffffffffffffffffffffffffffffffffffffffffffff8214156129d3576129d2612a1e565b5b600182019050919050565b60006129e982612a02565b9050919050565b60006129fb82612aeb565b9050919050565b6000612a0d82612af8565b9050919050565b6000819050919050565b7f4e487b7100000000000000000000000000000000000000000000000000000000600052601160045260246000fd5b7f4e487b7100000000000000000000000000000000000000000000000000000000600052601260045260246000fd5b7f4e487b7100000000000000000000000000000000000000000000000000000000600052602260045260246000fd5b7f4e487b7100000000000000000000000000000000000000000000000000000000600052604160045260246000fd5b6000601f19601f8301169050919050565b60008160f01b9050919050565b60008160601b9050919050565b7f5f647374436861696e4964732e6c656e6774682c205f647374436f756e74657260008201527f4d6f636b4164647265737365732e6c656e677468206e6f74207468652073616d60208201527f6500000000000000000000000000000000000000000000000000000000000000604082015250565b7f4f776e61626c653a206e6577206f776e657220697320746865207a65726f206160008201527f6464726573730000000000000000000000000000000000000000000000000000602082015250565b7f496e76616c69642072656d6f74652073656e64657220616464726573732e206f60008201527f776e65722073686f756c642063616c6c2073657452656d6f7465282920746f2060208201527f656e61626c652072656d6f746520636f6e747261637400000000000000000000604082015250565b7f4f776e61626c653a2063616c6c6572206973206e6f7420746865206f776e6572600082015250565b7f5468652072656d6f746520616464726573732068617320616c7265616479206260008201527f65656e2073657420666f722074686520636861696e4964210000000000000000602082015250565b612cbf81612838565b8114612cca57600080fd5b50565b612cd68161284a565b8114612ce157600080fd5b50565b612ced8161285c565b8114612cf857600080fd5b50565b612d048161288a565b8114612d0f57600080fd5b50565b612d1b81612894565b8114612d2657600080fd5b5056fea264697066735822122081ff6ca367807e7d685dc890ce046b979248907548aa35d1e3bbb682e091bebc64736f6c63430008040033",
  "linkReferences": {},
  "deployedLinkReferences": {}
}