{
  "_format": "hh-sol-artifact-1",
  "contractName": "PingPong",
  "sourceName": "contracts/PingPong.sol",
  "abi": [
    {
      "inputs": [
        {
          "internalType": "address",
          "name": "_layerZeroEndpoint",
          "type": "address"
        }
      ],
      "stateMutability": "nonpayable",
      "type": "constructor"
    },
    {
      "anonymous": false,
      "inputs": [
        {
          "indexed": false,
          "internalType": "uint256",
          "name": "pings",
          "type": "uint256"
        }
      ],
      "name": "Ping",
      "type": "event"
    },
    {
      "stateMutability": "payable",
      "type": "fallback"
    },
    {
      "inputs": [],
      "name": "disable",
      "outputs": [],
      "stateMutability": "nonpayable",
      "type": "function"
    },
    {
      "inputs": [],
      "name": "endpoint",
      "outputs": [
        {
          "internalType": "contract ILayerZeroEndpoint",
          "name": "",
          "type": "address"
        }
      ],
      "stateMutability": "view",
      "type": "function"
    },
    {
      "inputs": [
        {
          "internalType": "uint16",
          "name": "_srcChainId",
          "type": "uint16"
        },
        {
          "internalType": "bytes",
          "name": "_srcAddress",
          "type": "bytes"
        }
      ],
      "name": "forceResumeReceive",
      "outputs": [],
      "stateMutability": "nonpayable",
      "type": "function"
    },
    {
      "inputs": [
        {
          "internalType": "uint16",
          "name": "",
          "type": "uint16"
        },
        {
          "internalType": "uint16",
          "name": "_chainId",
          "type": "uint16"
        },
        {
          "internalType": "address",
          "name": "",
          "type": "address"
        },
        {
          "internalType": "uint256",
          "name": "_configType",
          "type": "uint256"
        }
      ],
      "name": "getConfig",
      "outputs": [
        {
          "internalType": "bytes",
          "name": "",
          "type": "bytes"
        }
      ],
      "stateMutability": "view",
      "type": "function"
    },
    {
      "inputs": [],
      "name": "getReceiveVersion",
      "outputs": [
        {
          "internalType": "uint16",
          "name": "",
          "type": "uint16"
        }
      ],
      "stateMutability": "view",
      "type": "function"
    },
    {
      "inputs": [],
      "name": "getSendVersion",
      "outputs": [
        {
          "internalType": "uint16",
          "name": "",
          "type": "uint16"
        }
      ],
      "stateMutability": "view",
      "type": "function"
    },
    {
      "inputs": [
        {
          "internalType": "uint16",
          "name": "_srcChainId",
          "type": "uint16"
        },
        {
          "internalType": "bytes",
          "name": "_fromAddress",
          "type": "bytes"
        },
        {
          "internalType": "uint64",
          "name": "",
          "type": "uint64"
        },
        {
          "internalType": "bytes",
          "name": "_payload",
          "type": "bytes"
        }
      ],
      "name": "lzReceive",
      "outputs": [],
      "stateMutability": "nonpayable",
      "type": "function"
    },
    {
      "inputs": [],
      "name": "maxPings",
      "outputs": [
        {
          "internalType": "uint256",
          "name": "",
          "type": "uint256"
        }
      ],
      "stateMutability": "view",
      "type": "function"
    },
    {
      "inputs": [],
      "name": "numPings",
      "outputs": [
        {
          "internalType": "uint256",
          "name": "",
          "type": "uint256"
        }
      ],
      "stateMutability": "view",
      "type": "function"
    },
    {
      "inputs": [
        {
          "internalType": "uint16",
          "name": "_dstChainId",
          "type": "uint16"
        },
        {
          "internalType": "address",
          "name": "_dstPingPongAddr",
          "type": "address"
        },
        {
          "internalType": "uint256",
          "name": "pings",
          "type": "uint256"
        }
      ],
      "name": "ping",
      "outputs": [],
      "stateMutability": "nonpayable",
      "type": "function"
    },
    {
      "inputs": [],
      "name": "pingsEnabled",
      "outputs": [
        {
          "internalType": "bool",
          "name": "",
          "type": "bool"
        }
      ],
      "stateMutability": "view",
      "type": "function"
    },
    {
      "inputs": [
        {
          "internalType": "uint16",
          "name": "",
          "type": "uint16"
        },
        {
          "internalType": "uint16",
          "name": "_dstChainId",
          "type": "uint16"
        },
        {
          "internalType": "uint256",
          "name": "_configType",
          "type": "uint256"
        },
        {
          "internalType": "bytes",
          "name": "_config",
          "type": "bytes"
        }
      ],
      "name": "setConfig",
      "outputs": [],
      "stateMutability": "nonpayable",
      "type": "function"
    },
    {
      "inputs": [
        {
          "internalType": "uint16",
          "name": "version",
          "type": "uint16"
        }
      ],
      "name": "setReceiveVersion",
      "outputs": [],
      "stateMutability": "nonpayable",
      "type": "function"
    },
    {
      "inputs": [
        {
          "internalType": "uint16",
          "name": "version",
          "type": "uint16"
        }
      ],
      "name": "setSendVersion",
      "outputs": [],
      "stateMutability": "nonpayable",
      "type": "function"
    },
    {
      "stateMutability": "payable",
      "type": "receive"
    }
  ],
  "bytecode": "0x60806040523480156200001157600080fd5b5060405162001b3e38038062001b3e8339818101604052810190620000379190620000b8565b6001600060146101000a81548160ff021916908315150217905550806000806101000a81548173ffffffffffffffffffffffffffffffffffffffff021916908373ffffffffffffffffffffffffffffffffffffffff16021790555060056001819055505062000132565b600081519050620000b28162000118565b92915050565b600060208284031215620000cb57600080fd5b6000620000db84828501620000a1565b91505092915050565b6000620000f182620000f8565b9050919050565b600073ffffffffffffffffffffffffffffffffffffffff82169050919050565b6200012381620000e4565b81146200012f57600080fd5b50565b6119fc80620001426000396000f3fe6080604052600436106100e05760003560e01c806354a5beda1161007f578063cbed8b9c11610059578063cbed8b9c1461027b578063cf5d1471146102a4578063f2d566fc146102cf578063f5ecbdbc146102f8576100e7565b806354a5beda146101fa5780635e280f11146102255780636c7c091b14610250576100e7565b80632f2770db116100bb5780632f2770db14610164578063315f7a7f1461017b5780633ba6107f146101a657806342d65a8d146101d1576100e7565b80621d3567146100e957806307e0db171461011257806310ddb1371461013b576100e7565b366100e757005b005b3480156100f557600080fd5b50610110600480360381019061010b9190610f4e565b610335565b005b34801561011e57600080fd5b5061013960048036038101906101349190610e55565b6103d4565b005b34801561014757600080fd5b50610162600480360381019061015d9190610e55565b610462565b005b34801561017057600080fd5b506101796104f0565b005b34801561018757600080fd5b5061019061050c565b60405161019d9190611545565b60405180910390f35b3480156101b257600080fd5b506101bb610512565b6040516101c891906112ea565b60405180910390f35b3480156101dd57600080fd5b506101f860048036038101906101f39190610ef6565b610525565b005b34801561020657600080fd5b5061020f61052a565b60405161021c91906113c2565b60405180910390f35b34801561023157600080fd5b5061023a6105db565b6040516102479190611327565b60405180910390f35b34801561025c57600080fd5b506102656105ff565b6040516102729190611545565b60405180910390f35b34801561028757600080fd5b506102a2600480360381019061029d9190611044565b610605565b005b3480156102b057600080fd5b506102b9610744565b6040516102c691906113c2565b60405180910390f35b3480156102db57600080fd5b506102f660048036038101906102f19190610ea7565b6107f5565b005b34801561030457600080fd5b5061031f600480360381019061031a9190610fe1565b610b14565b60405161032c9190611305565b60405180910390f35b60008054906101000a900473ffffffffffffffffffffffffffffffffffffffff1673ffffffffffffffffffffffffffffffffffffffff163373ffffffffffffffffffffffffffffffffffffffff161461038d57600080fd5b6000601484015190506000828060200190518101906103ac91906110bf565b9050806103b8906116f6565b9050806002819055506103cc8683836107f5565b505050505050565b60008054906101000a900473ffffffffffffffffffffffffffffffffffffffff1673ffffffffffffffffffffffffffffffffffffffff166307e0db17826040518263ffffffff1660e01b815260040161042d91906113c2565b600060405180830381600087803b15801561044757600080fd5b505af115801561045b573d6000803e3d6000fd5b5050505050565b60008054906101000a900473ffffffffffffffffffffffffffffffffffffffff1673ffffffffffffffffffffffffffffffffffffffff166310ddb137826040518263ffffffff1660e01b81526004016104bb91906113c2565b600060405180830381600087803b1580156104d557600080fd5b505af11580156104e9573d6000803e3d6000fd5b5050505050565b60008060146101000a81548160ff021916908315150217905550565b60025481565b600060149054906101000a900460ff1681565b505050565b60008060009054906101000a900473ffffffffffffffffffffffffffffffffffffffff1673ffffffffffffffffffffffffffffffffffffffff1663096568f6306040518263ffffffff1660e01b815260040161058691906112cf565b60206040518083038186803b15801561059e57600080fd5b505afa1580156105b2573d6000803e3d6000fd5b505050506040513d601f19601f820116820180604052508101906105d69190610e7e565b905090565b60008054906101000a900473ffffffffffffffffffffffffffffffffffffffff1681565b60015481565b60008054906101000a900473ffffffffffffffffffffffffffffffffffffffff1673ffffffffffffffffffffffffffffffffffffffff1663cbed8b9c8460008054906101000a900473ffffffffffffffffffffffffffffffffffffffff1673ffffffffffffffffffffffffffffffffffffffff1663096568f6306040518263ffffffff1660e01b815260040161069b91906112cf565b60206040518083038186803b1580156106b357600080fd5b505afa1580156106c7573d6000803e3d6000fd5b505050506040513d601f19601f820116820180604052508101906106eb9190610e7e565b85856040518563ffffffff1660e01b815260040161070c94939291906114f9565b600060405180830381600087803b15801561072657600080fd5b505af115801561073a573d6000803e3d6000fd5b5050505050505050565b60008060009054906101000a900473ffffffffffffffffffffffffffffffffffffffff1673ffffffffffffffffffffffffffffffffffffffff1663da1a7c9a306040518263ffffffff1660e01b81526004016107a091906112cf565b60206040518083038186803b1580156107b857600080fd5b505afa1580156107cc573d6000803e3d6000fd5b505050506040513d601f19601f820116820180604052508101906107f09190610e7e565b905090565b60004711610838576040517f08c379a000000000000000000000000000000000000000000000000000000000815260040161082f906113a2565b60405180910390fd5b600060149054906101000a900460ff16610887576040517f08c379a000000000000000000000000000000000000000000000000000000000815260040161087e90611342565b60405180910390fd5b80600154116108cb576040517f08c379a00000000000000000000000000000000000000000000000000000000081526004016108c290611362565b60405180910390fd5b7f48257dc961b6f792c2b78a080dacfed693b660960a702de21cee364e20270e2f816040516108fa9190611545565b60405180910390a16000816040516020016109159190611545565b60405160208183030381529060405290506000600190506000620557309050600082826040516020016109499291906112a3565b604051602081830303815290604052905060008060009054906101000a900473ffffffffffffffffffffffffffffffffffffffff1673ffffffffffffffffffffffffffffffffffffffff166340a7bb108930886000876040518663ffffffff1660e01b81526004016109bf9594939291906113dd565b604080518083038186803b1580156109d657600080fd5b505afa1580156109ea573d6000803e3d6000fd5b505050506040513d601f19601f82011682018060405250810190610a0e91906110e8565b50905080471015610a54576040517f08c379a0000000000000000000000000000000000000000000000000000000008152600401610a4b90611382565b60405180910390fd5b60008054906101000a900473ffffffffffffffffffffffffffffffffffffffff1673ffffffffffffffffffffffffffffffffffffffff1663c5803100828a8a604051602001610aa39190611288565b60405160208183030381529060405289306000896040518863ffffffff1660e01b8152600401610ad89695949392919061143e565b6000604051808303818588803b158015610af157600080fd5b505af1158015610b05573d6000803e3d6000fd5b50505050505050505050505050565b606060008054906101000a900473ffffffffffffffffffffffffffffffffffffffff1673ffffffffffffffffffffffffffffffffffffffff1663f5ecbdbc60008054906101000a900473ffffffffffffffffffffffffffffffffffffffff1673ffffffffffffffffffffffffffffffffffffffff1663096568f6306040518263ffffffff1660e01b8152600401610bab91906112cf565b60206040518083038186803b158015610bc357600080fd5b505afa158015610bd7573d6000803e3d6000fd5b505050506040513d601f19601f82011682018060405250810190610bfb9190610e7e565b8630866040518563ffffffff1660e01b8152600401610c1d94939291906114b4565b60006040518083038186803b158015610c3557600080fd5b505afa158015610c49573d6000803e3d6000fd5b505050506040513d6000823e3d601f19601f82011682018060405250810190610c729190610e14565b9050949350505050565b6000610c8f610c8a84611585565b611560565b905082815260208101848484011115610ca757600080fd5b610cb2848285611683565b509392505050565b6000610ccd610cc884611585565b611560565b905082815260208101848484011115610ce557600080fd5b610cf0848285611692565b509392505050565b600081359050610d078161196a565b92915050565b60008083601f840112610d1f57600080fd5b8235905067ffffffffffffffff811115610d3857600080fd5b602083019150836001820283011115610d5057600080fd5b9250929050565b600082601f830112610d6857600080fd5b8135610d78848260208601610c7c565b91505092915050565b600082601f830112610d9257600080fd5b8151610da2848260208601610cba565b91505092915050565b600081359050610dba81611981565b92915050565b600081519050610dcf81611981565b92915050565b600081359050610de481611998565b92915050565b600081519050610df981611998565b92915050565b600081359050610e0e816119af565b92915050565b600060208284031215610e2657600080fd5b600082015167ffffffffffffffff811115610e4057600080fd5b610e4c84828501610d81565b91505092915050565b600060208284031215610e6757600080fd5b6000610e7584828501610dab565b91505092915050565b600060208284031215610e9057600080fd5b6000610e9e84828501610dc0565b91505092915050565b600080600060608486031215610ebc57600080fd5b6000610eca86828701610dab565b9350506020610edb86828701610cf8565b9250506040610eec86828701610dd5565b9150509250925092565b600080600060408486031215610f0b57600080fd5b6000610f1986828701610dab565b935050602084013567ffffffffffffffff811115610f3657600080fd5b610f4286828701610d0d565b92509250509250925092565b60008060008060808587031215610f6457600080fd5b6000610f7287828801610dab565b945050602085013567ffffffffffffffff811115610f8f57600080fd5b610f9b87828801610d57565b9350506040610fac87828801610dff565b925050606085013567ffffffffffffffff811115610fc957600080fd5b610fd587828801610d57565b91505092959194509250565b60008060008060808587031215610ff757600080fd5b600061100587828801610dab565b945050602061101687828801610dab565b935050604061102787828801610cf8565b925050606061103887828801610dd5565b91505092959194509250565b6000806000806080858703121561105a57600080fd5b600061106887828801610dab565b945050602061107987828801610dab565b935050604061108a87828801610dd5565b925050606085013567ffffffffffffffff8111156110a757600080fd5b6110b387828801610d57565b91505092959194509250565b6000602082840312156110d157600080fd5b60006110df84828501610dea565b91505092915050565b600080604083850312156110fb57600080fd5b600061110985828601610dea565b925050602061111a85828601610dea565b9150509250929050565b61112d816115f5565b82525050565b61113c816115e3565b82525050565b61115361114e826115e3565b61173f565b82525050565b61116281611607565b82525050565b6000611173826115b6565b61117d81856115c1565b935061118d818560208601611692565b611196816117dd565b840191505092915050565b6111aa8161165f565b82525050565b60006111bd6027836115d2565b91506111c882611808565b604082019050919050565b60006111e0602a836115d2565b91506111eb82611857565b604082019050919050565b60006112036041836115d2565b915061120e826118a6565b606082019050919050565b60006112266040836115d2565b91506112318261191b565b604082019050919050565b61124581611613565b82525050565b61125c61125782611613565b611751565b82525050565b61126b81611641565b82525050565b61128261127d82611641565b611775565b82525050565b60006112948284611142565b60148201915081905092915050565b60006112af828561124b565b6002820191506112bf8284611271565b6020820191508190509392505050565b60006020820190506112e46000830184611133565b92915050565b60006020820190506112ff6000830184611159565b92915050565b6000602082019050818103600083015261131f8184611168565b905092915050565b600060208201905061133c60008301846111a1565b92915050565b6000602082019050818103600083015261135b816111b0565b9050919050565b6000602082019050818103600083015261137b816111d3565b9050919050565b6000602082019050818103600083015261139b816111f6565b9050919050565b600060208201905081810360008301526113bb81611219565b9050919050565b60006020820190506113d7600083018461123c565b92915050565b600060a0820190506113f2600083018861123c565b6113ff6020830187611133565b81810360408301526114118186611168565b90506114206060830185611159565b81810360808301526114328184611168565b90509695505050505050565b600060c082019050611453600083018961123c565b81810360208301526114658188611168565b905081810360408301526114798187611168565b90506114886060830186611124565b6114956080830185611133565b81810360a08301526114a78184611168565b9050979650505050505050565b60006080820190506114c9600083018761123c565b6114d6602083018661123c565b6114e36040830185611133565b6114f06060830184611262565b95945050505050565b600060808201905061150e600083018761123c565b61151b602083018661123c565b6115286040830185611262565b818103606083015261153a8184611168565b905095945050505050565b600060208201905061155a6000830184611262565b92915050565b600061156a61157b565b905061157682826116c5565b919050565b6000604051905090565b600067ffffffffffffffff8211156115a05761159f6117ae565b5b6115a9826117dd565b9050602081019050919050565b600081519050919050565b600082825260208201905092915050565b600082825260208201905092915050565b60006115ee82611621565b9050919050565b600061160082611621565b9050919050565b60008115159050919050565b600061ffff82169050919050565b600073ffffffffffffffffffffffffffffffffffffffff82169050919050565b6000819050919050565b600067ffffffffffffffff82169050919050565b600061166a82611671565b9050919050565b600061167c82611621565b9050919050565b82818337600083830152505050565b60005b838110156116b0578082015181840152602081019050611695565b838111156116bf576000848401525b50505050565b6116ce826117dd565b810181811067ffffffffffffffff821117156116ed576116ec6117ae565b5b80604052505050565b600061170182611641565b91507fffffffffffffffffffffffffffffffffffffffffffffffffffffffffffffffff8214156117345761173361177f565b5b600182019050919050565b600061174a82611763565b9050919050565b600061175c826117ee565b9050919050565b600061176e826117fb565b9050919050565b6000819050919050565b7f4e487b7100000000000000000000000000000000000000000000000000000000600052601160045260246000fd5b7f4e487b7100000000000000000000000000000000000000000000000000000000600052604160045260246000fd5b6000601f19601f8301169050919050565b60008160f01b9050919050565b60008160601b9050919050565b7f70696e6773456e61626c65642069732066616c73652e206d657373616765732060008201527f73746f7070656400000000000000000000000000000000000000000000000000602082015250565b7f6d617850696e677320686173206265656e20726561636865642c206e6f206d6f60008201527f7265206c6f6f70696e6700000000000000000000000000000000000000000000602082015250565b7f616464726573732874686973292e62616c616e6365203c206d6573736167654660008201527f65652e20706c732073656e642067617320666f72206d6573736167652066656560208201527f7300000000000000000000000000000000000000000000000000000000000000604082015250565b7f7468652062616c616e6365206f66207468697320636f6e74726163742069732060008201527f302e20706c732073656e642067617320666f72206d6573736167652066656573602082015250565b611973816115e3565b811461197e57600080fd5b50565b61198a81611613565b811461199557600080fd5b50565b6119a181611641565b81146119ac57600080fd5b50565b6119b88161164b565b81146119c357600080fd5b5056fea26469706673582212206b772af417276306a2e1c8bac18d38b6036fad7ebe811eb26c506032048cf37e64736f6c63430008040033",
  "linkReferences": {},
  "deployedLinkReferences": {}
}